{
  "contractName": "QuanLyUser",
  "abi": [
    {
      "inputs": [],
      "stateMutability": "nonpayable",
      "type": "constructor"
    },
    {
      "anonymous": false,
      "inputs": [
        {
          "indexed": true,
          "internalType": "address",
          "name": "oldAdmin",
          "type": "address"
        },
        {
          "indexed": true,
          "internalType": "address",
          "name": "newAdmin",
          "type": "address"
        }
      ],
      "name": "AdminChanged",
      "type": "event"
    },
    {
      "anonymous": false,
      "inputs": [
        {
          "indexed": true,
          "internalType": "string",
          "name": "username",
          "type": "string"
        }
      ],
      "name": "UserAdded",
      "type": "event"
    },
    {
      "anonymous": false,
      "inputs": [
        {
          "indexed": true,
          "internalType": "string",
          "name": "username",
          "type": "string"
        }
      ],
      "name": "UserRemoved",
      "type": "event"
    },
    {
      "inputs": [],
      "name": "admin",
      "outputs": [
        {
          "internalType": "address",
          "name": "",
          "type": "address"
        }
      ],
      "stateMutability": "view",
      "type": "function",
      "constant": true
    },
    {
      "inputs": [],
      "name": "adminPasswordHash",
      "outputs": [
        {
          "internalType": "bytes32",
          "name": "",
          "type": "bytes32"
        }
      ],
      "stateMutability": "view",
      "type": "function",
      "constant": true
    },
    {
      "inputs": [],
      "name": "adminUsername",
      "outputs": [
        {
          "internalType": "string",
          "name": "",
          "type": "string"
        }
      ],
      "stateMutability": "view",
      "type": "function",
      "constant": true
    },
    {
      "inputs": [
        {
          "internalType": "uint256",
          "name": "",
          "type": "uint256"
        }
      ],
      "name": "userList",
      "outputs": [
        {
          "internalType": "string",
          "name": "",
          "type": "string"
        }
      ],
      "stateMutability": "view",
      "type": "function",
      "constant": true
    },
    {
      "inputs": [
        {
          "internalType": "string",
          "name": "",
          "type": "string"
        }
      ],
      "name": "users",
      "outputs": [
        {
          "internalType": "string",
          "name": "username",
          "type": "string"
        },
        {
          "internalType": "string",
          "name": "nonghoSX",
          "type": "string"
        },
        {
          "internalType": "string",
          "name": "diaChi",
          "type": "string"
        },
        {
          "internalType": "string",
          "name": "sdt",
          "type": "string"
        },
        {
          "internalType": "bytes32",
          "name": "passwordHash",
          "type": "bytes32"
        }
      ],
      "stateMutability": "view",
      "type": "function",
      "constant": true
    },
    {
      "inputs": [
        {
          "internalType": "string",
          "name": "_username",
          "type": "string"
        },
        {
          "internalType": "string",
          "name": "_nonghoSX",
          "type": "string"
        },
        {
          "internalType": "string",
          "name": "_diaChi",
          "type": "string"
        },
        {
          "internalType": "string",
          "name": "_sdt",
          "type": "string"
        },
        {
          "internalType": "string",
          "name": "_password",
          "type": "string"
        }
      ],
      "name": "addUser",
      "outputs": [],
      "stateMutability": "nonpayable",
      "type": "function"
    },
    {
      "inputs": [
        {
          "internalType": "string",
          "name": "_username",
          "type": "string"
        }
      ],
      "name": "removeUser",
      "outputs": [],
      "stateMutability": "nonpayable",
      "type": "function"
    },
    {
      "inputs": [
        {
          "internalType": "string",
          "name": "_username",
          "type": "string"
        }
      ],
      "name": "getUser",
      "outputs": [
        {
          "internalType": "string",
          "name": "nonghoSX",
          "type": "string"
        },
        {
          "internalType": "string",
          "name": "diaChi",
          "type": "string"
        },
        {
          "internalType": "string",
          "name": "sdt",
          "type": "string"
        }
      ],
      "stateMutability": "view",
      "type": "function",
      "constant": true
    },
    {
      "inputs": [],
      "name": "getAllUsers",
      "outputs": [
        {
          "internalType": "string[]",
          "name": "",
          "type": "string[]"
        },
        {
          "internalType": "string[]",
          "name": "",
          "type": "string[]"
        }
      ],
      "stateMutability": "view",
      "type": "function",
      "constant": true
    },
    {
      "inputs": [
        {
          "internalType": "string",
          "name": "_username",
          "type": "string"
        },
        {
          "internalType": "string",
          "name": "_password",
          "type": "string"
        }
      ],
      "name": "verifyUser",
      "outputs": [
        {
          "internalType": "bool",
          "name": "",
          "type": "bool"
        }
      ],
      "stateMutability": "view",
      "type": "function",
      "constant": true
    },
    {
      "inputs": [
        {
          "internalType": "string",
          "name": "_username",
          "type": "string"
        },
        {
          "internalType": "string",
          "name": "_password",
          "type": "string"
        }
      ],
      "name": "getUserByLogin",
      "outputs": [
        {
          "internalType": "string",
          "name": "username",
          "type": "string"
        },
        {
          "internalType": "string",
          "name": "nonghoSX",
          "type": "string"
        },
        {
          "internalType": "string",
          "name": "diaChi",
          "type": "string"
        },
        {
          "internalType": "string",
          "name": "sdt",
          "type": "string"
        }
      ],
      "stateMutability": "view",
      "type": "function",
      "constant": true
    },
    {
      "inputs": [
        {
          "internalType": "string",
          "name": "_username",
          "type": "string"
        },
        {
          "internalType": "string",
          "name": "_password",
          "type": "string"
        }
      ],
      "name": "verifyAdmin",
      "outputs": [
        {
          "internalType": "bool",
          "name": "",
          "type": "bool"
        }
      ],
      "stateMutability": "view",
      "type": "function",
      "constant": true
    },
    {
      "inputs": [
        {
          "internalType": "string",
          "name": "_username",
          "type": "string"
        },
        {
          "internalType": "string",
          "name": "_newPassword",
          "type": "string"
        }
      ],
      "name": "resetPassword",
      "outputs": [],
      "stateMutability": "nonpayable",
      "type": "function"
    },
    {
      "inputs": [
        {
          "internalType": "string",
          "name": "_username",
          "type": "string"
        },
        {
          "internalType": "string",
          "name": "_oldPassword",
          "type": "string"
        },
        {
          "internalType": "string",
          "name": "_newPassword",
          "type": "string"
        }
      ],
      "name": "changePassword",
      "outputs": [],
      "stateMutability": "nonpayable",
      "type": "function"
    },
    {
      "inputs": [
        {
          "internalType": "address",
          "name": "newAdmin",
          "type": "address"
        }
      ],
      "name": "changeAdmin",
      "outputs": [],
      "stateMutability": "nonpayable",
      "type": "function"
    }
  ],
  "bytecode": "0x60806040523480156200001157600080fd5b50336000806101000a81548173ffffffffffffffffffffffffffffffffffffffff021916908373ffffffffffffffffffffffffffffffffffffffff1602179055506040518060400160405280600581526020017f61646d696e000000000000000000000000000000000000000000000000000000815250600390805190602001906200009f92919062000124565b50620000e66040518060400160405280600881526020017f61646d696e313233000000000000000000000000000000000000000000000000815250620000f260201b60201c565b600481905550620002d5565b6000816040516020016200010791906200020b565b604051602081830303815290604052805190602001209050919050565b828054620001329062000270565b90600052602060002090601f016020900481019282620001565760008555620001a2565b82601f106200017157805160ff1916838001178555620001a2565b82800160010185558215620001a2579182015b82811115620001a157825182559160200191906001019062000184565b5b509050620001b19190620001b5565b5090565b5b80821115620001d0576000816000905550600101620001b6565b5090565b6000620001e18262000224565b620001ed81856200022f565b9350620001ff8185602086016200023a565b80840191505092915050565b6000620002198284620001d4565b915081905092915050565b600081519050919050565b600081905092915050565b60005b838110156200025a5780820151818401526020810190506200023d565b838111156200026a576000848401525b50505050565b600060028204905060018216806200028957607f821691505b60208210811415620002a0576200029f620002a6565b5b50919050565b7f4e487b7100000000000000000000000000000000000000000000000000000000600052602260045260246000fd5b612aff80620002e56000396000f3fe608060405234801561001057600080fd5b50600436106100f55760003560e01c80636fcf1c7d11610097578063d9c71ca611610066578063d9c71ca6146102b1578063e2842d79146102cf578063f05f31fc146102ee578063f851a4401461030a576100f5565b80636fcf1c7d146102195780638f283970146102495780639f4216e814610265578063b37a3d8214610295576100f5565b8063600cee78116100d3578063600cee781461018f578063679a9c2c146101ab578063689e1c03146101c75780636c6fb448146101fb576100f5565b806331feb671146100fa57806334b0299b1461012c5780633f360b411461015f575b600080fd5b610114600480360381019061010f9190611ed7565b610328565b604051610123939291906124b5565b60405180910390f35b61014660048036038101906101419190611f18565b6105c9565b6040516101569493929190612501565b60405180910390f35b61017960048036038101906101749190611f18565b6108bd565b604051610186919061245d565b60405180910390f35b6101a960048036038101906101a49190611ed7565b610b9e565b005b6101c560048036038101906101c09190611f18565b610f12565b005b6101e160048036038101906101dc9190611ed7565b611087565b6040516101f2959493929190612562565b60405180910390f35b6102036112f3565b6040516102109190612493565b60405180910390f35b610233600480360381019061022e9190611f18565b611381565b604051610240919061245d565b60405180910390f35b610263600480360381019061025e9190611eae565b6113f0565b005b61027f600480360381019061027a919061210a565b6115ab565b60405161028c9190612493565b60405180910390f35b6102af60048036038101906102aa919061201b565b611657565b005b6102b96118a8565b6040516102c69190612478565b60405180910390f35b6102d76118ae565b6040516102e5929190612426565b60405180910390f35b61030860048036038101906103039190611f84565b611bdc565b005b610312611c58565b60405161031f919061240b565b60405180910390f35b6060806060600060018560405161033f91906123dd565b90815260200160405180910390206040518060a001604052908160008201805461036890612835565b80601f016020809104026020016040519081016040528092919081815260200182805461039490612835565b80156103e15780601f106103b6576101008083540402835291602001916103e1565b820191906000526020600020905b8154815290600101906020018083116103c457829003601f168201915b505050505081526020016001820180546103fa90612835565b80601f016020809104026020016040519081016040528092919081815260200182805461042690612835565b80156104735780601f1061044857610100808354040283529160200191610473565b820191906000526020600020905b81548152906001019060200180831161045657829003601f168201915b5050505050815260200160028201805461048c90612835565b80601f01602080910402602001604051908101604052809291908181526020018280546104b890612835565b80156105055780601f106104da57610100808354040283529160200191610505565b820191906000526020600020905b8154815290600101906020018083116104e857829003601f168201915b5050505050815260200160038201805461051e90612835565b80601f016020809104026020016040519081016040528092919081815260200182805461054a90612835565b80156105975780601f1061056c57610100808354040283529160200191610597565b820191906000526020600020905b81548152906001019060200180831161057a57829003601f168201915b505050505081526020016004820154815250509050806020015181604001518260600151935093509350509193909250565b6060806060806105d986866108bd565b610618576040517f08c379a000000000000000000000000000000000000000000000000000000000815260040161060f90612631565b60405180910390fd5b600060018760405161062a91906123dd565b90815260200160405180910390206040518060a001604052908160008201805461065390612835565b80601f016020809104026020016040519081016040528092919081815260200182805461067f90612835565b80156106cc5780601f106106a1576101008083540402835291602001916106cc565b820191906000526020600020905b8154815290600101906020018083116106af57829003601f168201915b505050505081526020016001820180546106e590612835565b80601f016020809104026020016040519081016040528092919081815260200182805461071190612835565b801561075e5780601f106107335761010080835404028352916020019161075e565b820191906000526020600020905b81548152906001019060200180831161074157829003601f168201915b5050505050815260200160028201805461077790612835565b80601f01602080910402602001604051908101604052809291908181526020018280546107a390612835565b80156107f05780601f106107c5576101008083540402835291602001916107f0565b820191906000526020600020905b8154815290600101906020018083116107d357829003601f168201915b5050505050815260200160038201805461080990612835565b80601f016020809104026020016040519081016040528092919081815260200182805461083590612835565b80156108825780601f1061085757610100808354040283529160200191610882565b820191906000526020600020905b81548152906001019060200180831161086557829003601f168201915b505050505081526020016004820154815250509050806000015181602001518260400151836060015194509450945094505092959194509250565b6000806001846040516108d091906123dd565b90815260200160405180910390206040518060a00160405290816000820180546108f990612835565b80601f016020809104026020016040519081016040528092919081815260200182805461092590612835565b80156109725780601f1061094757610100808354040283529160200191610972565b820191906000526020600020905b81548152906001019060200180831161095557829003601f168201915b5050505050815260200160018201805461098b90612835565b80601f01602080910402602001604051908101604052809291908181526020018280546109b790612835565b8015610a045780601f106109d957610100808354040283529160200191610a04565b820191906000526020600020905b8154815290600101906020018083116109e757829003601f168201915b50505050508152602001600282018054610a1d90612835565b80601f0160208091040260200160405190810160405280929190818152602001828054610a4990612835565b8015610a965780601f10610a6b57610100808354040283529160200191610a96565b820191906000526020600020905b815481529060010190602001808311610a7957829003601f168201915b50505050508152602001600382018054610aaf90612835565b80601f0160208091040260200160405190810160405280929190818152602001828054610adb90612835565b8015610b285780601f10610afd57610100808354040283529160200191610b28565b820191906000526020600020905b815481529060010190602001808311610b0b57829003601f168201915b50505050508152602001600482015481525050905060008160000151511415610b86576040517f08c379a0000000000000000000000000000000000000000000000000000000008152600401610b7d90612611565b60405180910390fd5b610b8f83611c7c565b81608001511491505092915050565b60008054906101000a900473ffffffffffffffffffffffffffffffffffffffff1673ffffffffffffffffffffffffffffffffffffffff163373ffffffffffffffffffffffffffffffffffffffff1614610c2c576040517f08c379a0000000000000000000000000000000000000000000000000000000008152600401610c2390612671565b60405180910390fd5b6000600182604051610c3e91906123dd565b90815260200160405180910390206000018054610c5a90612835565b90501415610c9d576040517f08c379a0000000000000000000000000000000000000000000000000000000008152600401610c9490612611565b60405180910390fd5b600181604051610cad91906123dd565b908152602001604051809103902060008082016000610ccc9190611cac565b600182016000610cdc9190611cac565b600282016000610cec9190611cac565b600382016000610cfc9190611cac565b6004820160009055505060005b600280549050811015610ecc5781604051602001610d2791906123dd565b6040516020818303038152906040528051906020012060028281548110610d77577f4e487b7100000000000000000000000000000000000000000000000000000000600052603260045260246000fd5b90600052602060002001604051602001610d9191906123f4565b604051602081830303815290604052805190602001201415610eb95760026001600280549050610dc1919061276d565b81548110610df8577f4e487b7100000000000000000000000000000000000000000000000000000000600052603260045260246000fd5b9060005260206000200160028281548110610e3c577f4e487b7100000000000000000000000000000000000000000000000000000000600052603260045260246000fd5b90600052602060002001908054610e5290612835565b610e5d929190611cec565b506002805480610e96577f4e487b7100000000000000000000000000000000000000000000000000000000600052603160045260246000fd5b600190038181906000526020600020016000610eb29190611cac565b9055610ecc565b8080610ec490612898565b915050610d09565b5080604051610edb91906123dd565b60405180910390207f5b8514bf599ab0e7b72a3b2d47ae13677daa88ebbf833cea7bad37b6df49ede360405160405180910390a250565b60008054906101000a900473ffffffffffffffffffffffffffffffffffffffff1673ffffffffffffffffffffffffffffffffffffffff163373ffffffffffffffffffffffffffffffffffffffff1614610fa0576040517f08c379a0000000000000000000000000000000000000000000000000000000008152600401610f9790612671565b60405180910390fd5b6000600183604051610fb291906123dd565b90815260200160405180910390206000018054610fce90612835565b90501415611011576040517f08c379a000000000000000000000000000000000000000000000000000000000815260040161100890612611565b60405180910390fd5b6000815111611055576040517f08c379a000000000000000000000000000000000000000000000000000000000815260040161104c906125f1565b60405180910390fd5b61105e81611c7c565b60018360405161106e91906123dd565b9081526020016040518091039020600401819055505050565b6001818051602081018201805184825260208301602085012081835280955050505050506000915090508060000180546110c090612835565b80601f01602080910402602001604051908101604052809291908181526020018280546110ec90612835565b80156111395780601f1061110e57610100808354040283529160200191611139565b820191906000526020600020905b81548152906001019060200180831161111c57829003601f168201915b50505050509080600101805461114e90612835565b80601f016020809104026020016040519081016040528092919081815260200182805461117a90612835565b80156111c75780601f1061119c576101008083540402835291602001916111c7565b820191906000526020600020905b8154815290600101906020018083116111aa57829003601f168201915b5050505050908060020180546111dc90612835565b80601f016020809104026020016040519081016040528092919081815260200182805461120890612835565b80156112555780601f1061122a57610100808354040283529160200191611255565b820191906000526020600020905b81548152906001019060200180831161123857829003601f168201915b50505050509080600301805461126a90612835565b80601f016020809104026020016040519081016040528092919081815260200182805461129690612835565b80156112e35780601f106112b8576101008083540402835291602001916112e3565b820191906000526020600020905b8154815290600101906020018083116112c657829003601f168201915b5050505050908060040154905085565b6003805461130090612835565b80601f016020809104026020016040519081016040528092919081815260200182805461132c90612835565b80156113795780601f1061134e57610100808354040283529160200191611379565b820191906000526020600020905b81548152906001019060200180831161135c57829003601f168201915b505050505081565b6000600360405160200161139591906123f4565b60405160208183030381529060405280519060200120836040516020016113bc91906123dd565b604051602081830303815290604052805190602001201480156113e857506113e382611c7c565b600454145b905092915050565b60008054906101000a900473ffffffffffffffffffffffffffffffffffffffff1673ffffffffffffffffffffffffffffffffffffffff163373ffffffffffffffffffffffffffffffffffffffff161461147e576040517f08c379a000000000000000000000000000000000000000000000000000000000815260040161147590612671565b60405180910390fd5b600073ffffffffffffffffffffffffffffffffffffffff168173ffffffffffffffffffffffffffffffffffffffff1614156114ee576040517f08c379a00000000000000000000000000000000000000000000000000000000081526004016114e5906125d1565b60405180910390fd5b8073ffffffffffffffffffffffffffffffffffffffff1660008054906101000a900473ffffffffffffffffffffffffffffffffffffffff1673ffffffffffffffffffffffffffffffffffffffff167f7e644d79422f17c01e4894b5f4f588d331ebfa28653d42ae832dc59e38c9798f60405160405180910390a3806000806101000a81548173ffffffffffffffffffffffffffffffffffffffff021916908373ffffffffffffffffffffffffffffffffffffffff16021790555050565b600281815481106115bb57600080fd5b9060005260206000200160009150905080546115d690612835565b80601f016020809104026020016040519081016040528092919081815260200182805461160290612835565b801561164f5780601f106116245761010080835404028352916020019161164f565b820191906000526020600020905b81548152906001019060200180831161163257829003601f168201915b505050505081565b60008054906101000a900473ffffffffffffffffffffffffffffffffffffffff1673ffffffffffffffffffffffffffffffffffffffff163373ffffffffffffffffffffffffffffffffffffffff16146116e5576040517f08c379a00000000000000000000000000000000000000000000000000000000081526004016116dc90612671565b60405180910390fd5b60006001866040516116f791906123dd565b9081526020016040518091039020600001805461171390612835565b905014611755576040517f08c379a000000000000000000000000000000000000000000000000000000000815260040161174c90612651565b60405180910390fd5b6040518060a0016040528086815260200185815260200184815260200183815260200161178183611c7c565b81525060018660405161179491906123dd565b908152602001604051809103902060008201518160000190805190602001906117be929190611d79565b5060208201518160010190805190602001906117db929190611d79565b5060408201518160020190805190602001906117f8929190611d79565b506060820151816003019080519060200190611815929190611d79565b506080820151816004015590505060028590806001815401808255809150506001900390600052602060002001600090919091909150908051906020019061185e929190611d79565b508460405161186d91906123dd565b60405180910390207fdb8f9fd4bfba5ae615ae02e8b4d281b887225fd3d34a5ac7b8d78df768bb63e760405160405180910390a25050505050565b60045481565b6060806000600280549050905060008167ffffffffffffffff8111156118fd577f4e487b7100000000000000000000000000000000000000000000000000000000600052604160045260246000fd5b60405190808252806020026020018201604052801561193057816020015b606081526020019060019003908161191b5790505b50905060008267ffffffffffffffff811115611975577f4e487b7100000000000000000000000000000000000000000000000000000000600052604160045260246000fd5b6040519080825280602002602001820160405280156119a857816020015b60608152602001906001900390816119935790505b50905060005b83811015611bce576000600282815481106119f2577f4e487b7100000000000000000000000000000000000000000000000000000000600052603260045260246000fd5b906000526020600020018054611a0790612835565b80601f0160208091040260200160405190810160405280929190818152602001828054611a3390612835565b8015611a805780601f10611a5557610100808354040283529160200191611a80565b820191906000526020600020905b815481529060010190602001808311611a6357829003601f168201915b5050505050905080848381518110611ac1577f4e487b7100000000000000000000000000000000000000000000000000000000600052603260045260246000fd5b6020026020010181905250600181604051611adc91906123dd565b90815260200160405180910390206001018054611af890612835565b80601f0160208091040260200160405190810160405280929190818152602001828054611b2490612835565b8015611b715780601f10611b4657610100808354040283529160200191611b71565b820191906000526020600020905b815481529060010190602001808311611b5457829003601f168201915b5050505050838381518110611baf577f4e487b7100000000000000000000000000000000000000000000000000000000600052603260045260246000fd5b6020026020010181905250508080611bc690612898565b9150506119ae565b508181945094505050509091565b611be683836108bd565b611c25576040517f08c379a0000000000000000000000000000000000000000000000000000000008152600401611c1c90612631565b60405180910390fd5b611c2e81611c7c565b600184604051611c3e91906123dd565b908152602001604051809103902060040181905550505050565b60008054906101000a900473ffffffffffffffffffffffffffffffffffffffff1681565b600081604051602001611c8f91906123dd565b604051602081830303815290604052805190602001209050919050565b508054611cb890612835565b6000825580601f10611cca5750611ce9565b601f016020900490600052602060002090810190611ce89190611dff565b5b50565b828054611cf890612835565b90600052602060002090601f016020900481019282611d1a5760008555611d68565b82601f10611d2b5780548555611d68565b82800160010185558215611d6857600052602060002091601f016020900482015b82811115611d67578254825591600101919060010190611d4c565b5b509050611d759190611dff565b5090565b828054611d8590612835565b90600052602060002090601f016020900481019282611da75760008555611dee565b82601f10611dc057805160ff1916838001178555611dee565b82800160010185558215611dee579182015b82811115611ded578251825591602001919060010190611dd2565b5b509050611dfb9190611dff565b5090565b5b80821115611e18576000816000905550600101611e00565b5090565b6000611e2f611e2a846126b6565b612691565b905082815260208101848484011115611e4757600080fd5b611e528482856127f3565b509392505050565b600081359050611e6981612a9b565b92915050565b600082601f830112611e8057600080fd5b8135611e90848260208601611e1c565b91505092915050565b600081359050611ea881612ab2565b92915050565b600060208284031215611ec057600080fd5b6000611ece84828501611e5a565b91505092915050565b600060208284031215611ee957600080fd5b600082013567ffffffffffffffff811115611f0357600080fd5b611f0f84828501611e6f565b91505092915050565b60008060408385031215611f2b57600080fd5b600083013567ffffffffffffffff811115611f4557600080fd5b611f5185828601611e6f565b925050602083013567ffffffffffffffff811115611f6e57600080fd5b611f7a85828601611e6f565b9150509250929050565b600080600060608486031215611f9957600080fd5b600084013567ffffffffffffffff811115611fb357600080fd5b611fbf86828701611e6f565b935050602084013567ffffffffffffffff811115611fdc57600080fd5b611fe886828701611e6f565b925050604084013567ffffffffffffffff81111561200557600080fd5b61201186828701611e6f565b9150509250925092565b600080600080600060a0868803121561203357600080fd5b600086013567ffffffffffffffff81111561204d57600080fd5b61205988828901611e6f565b955050602086013567ffffffffffffffff81111561207657600080fd5b61208288828901611e6f565b945050604086013567ffffffffffffffff81111561209f57600080fd5b6120ab88828901611e6f565b935050606086013567ffffffffffffffff8111156120c857600080fd5b6120d488828901611e6f565b925050608086013567ffffffffffffffff8111156120f157600080fd5b6120fd88828901611e6f565b9150509295509295909350565b60006020828403121561211c57600080fd5b600061212a84828501611e99565b91505092915050565b600061213f83836121e9565b905092915050565b612150816127a1565b82525050565b60006121618261270c565b61216b818561272f565b93508360208202850161217d856126e7565b8060005b858110156121b9578484038952815161219a8582612133565b94506121a583612722565b925060208a01995050600181019050612181565b50829750879550505050505092915050565b6121d4816127b3565b82525050565b6121e3816127bf565b82525050565b60006121f482612717565b6121fe8185612740565b935061220e818560208601612802565b6122178161296e565b840191505092915050565b600061222d82612717565b6122378185612751565b9350612247818560208601612802565b6122508161296e565b840191505092915050565b600061226682612717565b6122708185612762565b9350612280818560208601612802565b80840191505092915050565b6000815461229981612835565b6122a38186612762565b945060018216600081146122be57600181146122cf57612302565b60ff19831686528186019350612302565b6122d8856126f7565b60005b838110156122fa578154818901526001820191506020810190506122db565b838801955050505b50505092915050565b6000612318601f83612751565b91506123238261297f565b602082019050919050565b600061233b601d83612751565b9150612346826129a8565b602082019050919050565b600061235e601383612751565b9150612369826129d1565b602082019050919050565b6000612381602483612751565b915061238c826129fa565b604082019050919050565b60006123a4601483612751565b91506123af82612a49565b602082019050919050565b60006123c7601c83612751565b91506123d282612a72565b602082019050919050565b60006123e9828461225b565b915081905092915050565b6000612400828461228c565b915081905092915050565b60006020820190506124206000830184612147565b92915050565b600060408201905081810360008301526124408185612156565b905081810360208301526124548184612156565b90509392505050565b600060208201905061247260008301846121cb565b92915050565b600060208201905061248d60008301846121da565b92915050565b600060208201905081810360008301526124ad8184612222565b905092915050565b600060608201905081810360008301526124cf8186612222565b905081810360208301526124e38185612222565b905081810360408301526124f78184612222565b9050949350505050565b6000608082019050818103600083015261251b8187612222565b9050818103602083015261252f8186612222565b905081810360408301526125438185612222565b905081810360608301526125578184612222565b905095945050505050565b600060a082019050818103600083015261257c8188612222565b905081810360208301526125908187612222565b905081810360408301526125a48186612222565b905081810360608301526125b88185612222565b90506125c760808301846121da565b9695505050505050565b600060208201905081810360008301526125ea8161230b565b9050919050565b6000602082019050818103600083015261260a8161232e565b9050919050565b6000602082019050818103600083015261262a81612351565b9050919050565b6000602082019050818103600083015261264a81612374565b9050919050565b6000602082019050818103600083015261266a81612397565b9050919050565b6000602082019050818103600083015261268a816123ba565b9050919050565b600061269b6126ac565b90506126a78282612867565b919050565b6000604051905090565b600067ffffffffffffffff8211156126d1576126d061293f565b5b6126da8261296e565b9050602081019050919050565b6000819050602082019050919050565b60008190508160005260206000209050919050565b600081519050919050565b600081519050919050565b6000602082019050919050565b600082825260208201905092915050565b600082825260208201905092915050565b600082825260208201905092915050565b600081905092915050565b6000612778826127e9565b9150612783836127e9565b925082821015612796576127956128e1565b5b828203905092915050565b60006127ac826127c9565b9050919050565b60008115159050919050565b6000819050919050565b600073ffffffffffffffffffffffffffffffffffffffff82169050919050565b6000819050919050565b82818337600083830152505050565b60005b83811015612820578082015181840152602081019050612805565b8381111561282f576000848401525b50505050565b6000600282049050600182168061284d57607f821691505b6020821081141561286157612860612910565b5b50919050565b6128708261296e565b810181811067ffffffffffffffff8211171561288f5761288e61293f565b5b80604052505050565b60006128a3826127e9565b91507fffffffffffffffffffffffffffffffffffffffffffffffffffffffffffffffff8214156128d6576128d56128e1565b5b600182019050919050565b7f4e487b7100000000000000000000000000000000000000000000000000000000600052601160045260246000fd5b7f4e487b7100000000000000000000000000000000000000000000000000000000600052602260045260246000fd5b7f4e487b7100000000000000000000000000000000000000000000000000000000600052604160045260246000fd5b6000601f19601f8301169050919050565b7f446961206368692061646d696e206d6f69206b686f6e6720686f70206c652100600082015250565b7f4d6174206b686175206b686f6e672064756f632064652074726f6e6721000000600082015250565b7f55736572206b686f6e6720746f6e207461692100000000000000000000000000600082015250565b7f54686f6e672074696e2064616e67206e686170206b686f6e67206368696e682060008201527f7861632100000000000000000000000000000000000000000000000000000000602082015250565b7f557365726e616d6520646120746f6e2074616921000000000000000000000000600082015250565b7f4368692061646d696e206d6f692064756f632074616f20757365722100000000600082015250565b612aa4816127a1565b8114612aaf57600080fd5b50565b612abb816127e9565b8114612ac657600080fd5b5056fea26469706673582212209eee3374ac526f51cea2fa37b4f15adcf6a38277fa0babe093b5c34e90f982b164736f6c63430008020033",
  "immutableReferences": {},
  "source": "\r\npragma solidity >=0.4.22 <0.9.0;\r\n\r\ncontract QuanLyUser {\r\n    struct User {\r\n        string username;\r\n        string nonghoSX;\r\n        string diaChi;\r\n        string sdt;\r\n        bytes32 passwordHash;\r\n    }\r\n\r\n    address public admin;\r\n    mapping(string => User) public users; \r\n    string[] public userList; \r\n\r\n    event UserAdded(string indexed username);\r\n    event UserRemoved(string indexed username);\r\n    event AdminChanged(address indexed oldAdmin, address indexed newAdmin);\r\n\r\n    string public adminUsername; \r\n    bytes32 public adminPasswordHash;\r\n\r\n    constructor() {\r\n        admin = msg.sender; \r\n        adminUsername = \"admin\";\r\n        adminPasswordHash = hashPassword(\"admin123\");\r\n    }\r\n\r\n    modifier onlyAdmin() {\r\n        require(msg.sender == admin, \"Chi admin moi duoc tao user!\");\r\n        _;\r\n    }\r\n\r\n    function hashPassword(string memory _password) private pure returns (bytes32) {\r\n        return keccak256(abi.encodePacked(_password));\r\n    }\r\n\r\n    function addUser(\r\n        string memory _username,\r\n        string memory _nonghoSX,\r\n        string memory _diaChi,\r\n        string memory _sdt,\r\n        string memory _password\r\n    ) public onlyAdmin {\r\n        require(bytes(users[_username].username).length == 0, \"Username da ton tai!\");\r\n\r\n        users[_username] = User({\r\n            username: _username,\r\n            nonghoSX: _nonghoSX,\r\n            diaChi: _diaChi,\r\n            sdt: _sdt,\r\n            passwordHash: hashPassword(_password)\r\n        });\r\n\r\n        userList.push(_username);\r\n        emit UserAdded(_username);\r\n    }\r\n\r\n    function removeUser(string memory _username) public onlyAdmin {\r\n        require(bytes(users[_username].username).length != 0, \"User khong ton tai!\");\r\n\r\n        delete users[_username];\r\n\r\n        for (uint i = 0; i < userList.length; i++) {\r\n            if (keccak256(abi.encodePacked(userList[i])) == keccak256(abi.encodePacked(_username))) {\r\n                userList[i] = userList[userList.length - 1]; // a phn t cui vo v tr  xa\r\n                userList.pop(); // Xa phn t cui\r\n                break;\r\n            }\r\n        }\r\n        emit UserRemoved(_username);\r\n    }\r\n\r\n    function getUser(string memory _username) public view returns (\r\n        string memory nonghoSX,\r\n        string memory diaChi,\r\n        string memory sdt\r\n    ) {\r\n        User memory u = users[_username];\r\n        return (u.nonghoSX, u.diaChi, u.sdt);\r\n    }\r\n\r\n\r\n    function getAllUsers() public view returns (string[] memory, string[] memory) {\r\n        uint userCount = userList.length;\r\n        string[] memory usernames = new string[](userCount);\r\n        string[] memory nonghoSXs = new string[](userCount);\r\n\r\n        for (uint i = 0; i < userCount; i++) {\r\n            string memory username = userList[i];\r\n            usernames[i] = username;\r\n            nonghoSXs[i] = users[username].nonghoSX;\r\n        }\r\n\r\n        return (usernames, nonghoSXs);\r\n    }\r\n\r\n    function verifyUser(string memory _username, string memory _password) public view returns (bool) {\r\n        User memory u = users[_username];\r\n        require(bytes(u.username).length != 0, \"User khong ton tai!\");\r\n\r\n        return u.passwordHash == hashPassword(_password);\r\n    }\r\n\r\n    function getUserByLogin(string memory _username, string memory _password) public view returns (\r\n        string memory username,\r\n        string memory nonghoSX,\r\n        string memory diaChi,\r\n        string memory sdt\r\n    ) {\r\n        require(verifyUser(_username, _password), \"Thong tin dang nhap khong chinh xac!\");\r\n\r\n        User memory u = users[_username];\r\n        return (u.username, u.nonghoSX, u.diaChi, u.sdt);\r\n    }\r\n\r\n    function verifyAdmin(string memory _username, string memory _password) public view returns (bool) {\r\n        return (keccak256(abi.encodePacked(_username)) == keccak256(abi.encodePacked(adminUsername)) &&\r\n                adminPasswordHash == hashPassword(_password));\r\n    }\r\n\r\n    function resetPassword(string memory _username, string memory _newPassword) public onlyAdmin {\r\n        require(bytes(users[_username].username).length != 0, \"User khong ton tai!\");\r\n        require(bytes(_newPassword).length > 0, \"Mat khau khong duoc de trong!\");\r\n\r\n        // Cp nht mt khu mi cho ngi dng\r\n        users[_username].passwordHash = hashPassword(_newPassword);\r\n    }\r\n\r\n\r\n    function changePassword(\r\n        string memory _username,\r\n        string memory _oldPassword,\r\n        string memory _newPassword\r\n    ) public {\r\n        require(verifyUser(_username, _oldPassword), \"Thong tin dang nhap khong chinh xac!\");\r\n\r\n        // Cp nht mt khu mi\r\n        users[_username].passwordHash = hashPassword(_newPassword);\r\n    }\r\n\r\n    function changeAdmin(address newAdmin) public onlyAdmin {\r\n        require(newAdmin != address(0), \"Dia chi admin moi khong hop le!\");\r\n        emit AdminChanged(admin, newAdmin);\r\n        admin = newAdmin;\r\n    }\r\n}\r\n",
  "sourcePath": "D:\\chungthuc\\contracts\\account.sol",
  "compiler": {
    "name": "solc",
    "version": "0.8.2+commit.661d1103.Emscripten.clang"
  },
  "schemaVersion": "3.4.16",
  "updatedAt": "2025-03-13T11:59:41.818Z",
  "networkType": "ethereum",
  "devdoc": {
    "kind": "dev",
    "methods": {},
    "version": 1
  },
  "userdoc": {
    "kind": "user",
    "methods": {},
    "version": 1
  }
}