{
  "contractName": "XacThucSanPham",
  "abi": [
    {
      "inputs": [],
      "stateMutability": "nonpayable",
      "type": "constructor"
    },
    {
      "anonymous": false,
      "inputs": [
        {
          "indexed": false,
          "internalType": "bytes32",
          "name": "productHash",
          "type": "bytes32"
        },
        {
          "indexed": false,
          "internalType": "string",
          "name": "maSanPham",
          "type": "string"
        },
        {
          "indexed": false,
          "internalType": "string",
          "name": "nonghoSX",
          "type": "string"
        },
        {
          "indexed": false,
          "internalType": "enum XacThucSanPham.TrangThai",
          "name": "trangThai",
          "type": "uint8"
        }
      ],
      "name": "ProductAdded",
      "type": "event"
    },
    {
      "anonymous": false,
      "inputs": [
        {
          "indexed": false,
          "internalType": "bytes32",
          "name": "productHash",
          "type": "bytes32"
        }
      ],
      "name": "ProductApproved",
      "type": "event"
    },
    {
      "anonymous": false,
      "inputs": [
        {
          "indexed": false,
          "internalType": "bytes32",
          "name": "productHash",
          "type": "bytes32"
        }
      ],
      "name": "ProductDeleted",
      "type": "event"
    },
    {
      "inputs": [],
      "name": "admin",
      "outputs": [
        {
          "internalType": "address",
          "name": "",
          "type": "address"
        }
      ],
      "stateMutability": "view",
      "type": "function",
      "constant": true
    },
    {
      "inputs": [
        {
          "internalType": "uint256",
          "name": "",
          "type": "uint256"
        }
      ],
      "name": "productHashes",
      "outputs": [
        {
          "internalType": "bytes32",
          "name": "",
          "type": "bytes32"
        }
      ],
      "stateMutability": "view",
      "type": "function",
      "constant": true
    },
    {
      "inputs": [
        {
          "internalType": "bytes32",
          "name": "",
          "type": "bytes32"
        }
      ],
      "name": "products",
      "outputs": [
        {
          "internalType": "string",
          "name": "nonghoSX",
          "type": "string"
        },
        {
          "internalType": "string",
          "name": "username",
          "type": "string"
        },
        {
          "internalType": "string",
          "name": "diaChi",
          "type": "string"
        },
        {
          "internalType": "string",
          "name": "maSanPham",
          "type": "string"
        },
        {
          "internalType": "string",
          "name": "loai",
          "type": "string"
        },
        {
          "internalType": "string",
          "name": "giong",
          "type": "string"
        },
        {
          "internalType": "string",
          "name": "tieuChuan",
          "type": "string"
        },
        {
          "internalType": "string",
          "name": "trongLuong",
          "type": "string"
        },
        {
          "internalType": "string",
          "name": "ngayThuHoach",
          "type": "string"
        },
        {
          "internalType": "enum XacThucSanPham.TrangThai",
          "name": "trangThai",
          "type": "uint8"
        }
      ],
      "stateMutability": "view",
      "type": "function",
      "constant": true
    },
    {
      "inputs": [
        {
          "internalType": "string",
          "name": "nonghoSX",
          "type": "string"
        },
        {
          "internalType": "string",
          "name": "username",
          "type": "string"
        },
        {
          "internalType": "string",
          "name": "diaChi",
          "type": "string"
        },
        {
          "internalType": "string",
          "name": "maSanPham",
          "type": "string"
        },
        {
          "internalType": "string",
          "name": "loai",
          "type": "string"
        },
        {
          "internalType": "string",
          "name": "giong",
          "type": "string"
        },
        {
          "internalType": "string",
          "name": "tieuChuan",
          "type": "string"
        },
        {
          "internalType": "string",
          "name": "trongLuong",
          "type": "string"
        },
        {
          "internalType": "string",
          "name": "ngayThuHoach",
          "type": "string"
        }
      ],
      "name": "addProduct",
      "outputs": [],
      "stateMutability": "nonpayable",
      "type": "function"
    },
    {
      "inputs": [
        {
          "internalType": "bytes32",
          "name": "productHash",
          "type": "bytes32"
        }
      ],
      "name": "approveProduct",
      "outputs": [],
      "stateMutability": "nonpayable",
      "type": "function"
    },
    {
      "inputs": [
        {
          "internalType": "bytes32",
          "name": "productHash",
          "type": "bytes32"
        }
      ],
      "name": "deleteProduct",
      "outputs": [],
      "stateMutability": "nonpayable",
      "type": "function"
    },
    {
      "inputs": [
        {
          "internalType": "bytes32",
          "name": "productHash",
          "type": "bytes32"
        }
      ],
      "name": "getProduct",
      "outputs": [
        {
          "internalType": "string",
          "name": "",
          "type": "string"
        },
        {
          "internalType": "string",
          "name": "",
          "type": "string"
        },
        {
          "internalType": "string",
          "name": "",
          "type": "string"
        },
        {
          "internalType": "string",
          "name": "",
          "type": "string"
        },
        {
          "internalType": "string",
          "name": "",
          "type": "string"
        },
        {
          "internalType": "string",
          "name": "",
          "type": "string"
        },
        {
          "internalType": "string",
          "name": "",
          "type": "string"
        },
        {
          "internalType": "string",
          "name": "",
          "type": "string"
        },
        {
          "internalType": "string",
          "name": "",
          "type": "string"
        },
        {
          "internalType": "enum XacThucSanPham.TrangThai",
          "name": "",
          "type": "uint8"
        }
      ],
      "stateMutability": "view",
      "type": "function",
      "constant": true
    },
    {
      "inputs": [
        {
          "internalType": "string",
          "name": "_nonghoSX",
          "type": "string"
        }
      ],
      "name": "getProductsByNongHoSX",
      "outputs": [
        {
          "internalType": "bytes32[]",
          "name": "",
          "type": "bytes32[]"
        },
        {
          "components": [
            {
              "internalType": "string",
              "name": "nonghoSX",
              "type": "string"
            },
            {
              "internalType": "string",
              "name": "username",
              "type": "string"
            },
            {
              "internalType": "string",
              "name": "diaChi",
              "type": "string"
            },
            {
              "internalType": "string",
              "name": "maSanPham",
              "type": "string"
            },
            {
              "internalType": "string",
              "name": "loai",
              "type": "string"
            },
            {
              "internalType": "string",
              "name": "giong",
              "type": "string"
            },
            {
              "internalType": "string",
              "name": "tieuChuan",
              "type": "string"
            },
            {
              "internalType": "string",
              "name": "trongLuong",
              "type": "string"
            },
            {
              "internalType": "string",
              "name": "ngayThuHoach",
              "type": "string"
            },
            {
              "internalType": "enum XacThucSanPham.TrangThai",
              "name": "trangThai",
              "type": "uint8"
            }
          ],
          "internalType": "struct XacThucSanPham.Product[]",
          "name": "",
          "type": "tuple[]"
        }
      ],
      "stateMutability": "view",
      "type": "function",
      "constant": true
    },
    {
      "inputs": [],
      "name": "getProductsAwait",
      "outputs": [
        {
          "internalType": "bytes32[]",
          "name": "",
          "type": "bytes32[]"
        },
        {
          "components": [
            {
              "internalType": "string",
              "name": "nonghoSX",
              "type": "string"
            },
            {
              "internalType": "string",
              "name": "username",
              "type": "string"
            },
            {
              "internalType": "string",
              "name": "diaChi",
              "type": "string"
            },
            {
              "internalType": "string",
              "name": "maSanPham",
              "type": "string"
            },
            {
              "internalType": "string",
              "name": "loai",
              "type": "string"
            },
            {
              "internalType": "string",
              "name": "giong",
              "type": "string"
            },
            {
              "internalType": "string",
              "name": "tieuChuan",
              "type": "string"
            },
            {
              "internalType": "string",
              "name": "trongLuong",
              "type": "string"
            },
            {
              "internalType": "string",
              "name": "ngayThuHoach",
              "type": "string"
            },
            {
              "internalType": "enum XacThucSanPham.TrangThai",
              "name": "trangThai",
              "type": "uint8"
            }
          ],
          "internalType": "struct XacThucSanPham.Product[]",
          "name": "",
          "type": "tuple[]"
        }
      ],
      "stateMutability": "view",
      "type": "function",
      "constant": true
    },
    {
      "inputs": [],
      "name": "getProductHashes",
      "outputs": [
        {
          "internalType": "bytes32[]",
          "name": "",
          "type": "bytes32[]"
        }
      ],
      "stateMutability": "view",
      "type": "function",
      "constant": true
    }
  ],
  "bytecode": "0x608060405234801561001057600080fd5b5033600260006101000a81548173ffffffffffffffffffffffffffffffffffffffff021916908373ffffffffffffffffffffffffffffffffffffffff160217905550613a33806100616000396000f3fe608060405234801561001057600080fd5b506004361061009e5760003560e01c806394727b411161006657806394727b4114610180578063c7c954421461019c578063e092a997146101bb578063f58e2eab146101d7578063f851a440146102075761009e565b80633a20e9df146100a35780633b89d108146100dc578063585ae7b61461010d5780636f6b1b451461012b5780637905439114610147575b600080fd5b6100bd60048036038101906100b89190612c6c565b610225565b6040516100d39a999897969594939291906133db565b60405180910390f35b6100f660048036038101906100f19190612c95565b610855565b604051610104929190613336565b60405180910390f35b6101156111f1565b6040516101229190613314565b60405180910390f35b61014560048036038101906101409190612c6c565b611249565b005b610161600480360381019061015c9190612c6c565b61144c565b6040516101779a999897969594939291906133db565b60405180910390f35b61019a60048036038101906101959190612c6c565b611975565b005b6101a4611d2c565b6040516101b2929190613336565b60405180910390f35b6101d560048036038101906101d09190612cd6565b61272d565b005b6101f160048036038101906101ec9190612e74565b612a22565b6040516101fe919061336d565b60405180910390f35b61020f612a46565b60405161021c91906132f9565b60405180910390f35b60608060608060608060608060606000806000808d8152602001908152602001600020604051806101400160405290816000820180546102649061372c565b80601f01602080910402602001604051908101604052809291908181526020018280546102909061372c565b80156102dd5780601f106102b2576101008083540402835291602001916102dd565b820191906000526020600020905b8154815290600101906020018083116102c057829003601f168201915b505050505081526020016001820180546102f69061372c565b80601f01602080910402602001604051908101604052809291908181526020018280546103229061372c565b801561036f5780601f106103445761010080835404028352916020019161036f565b820191906000526020600020905b81548152906001019060200180831161035257829003601f168201915b505050505081526020016002820180546103889061372c565b80601f01602080910402602001604051908101604052809291908181526020018280546103b49061372c565b80156104015780601f106103d657610100808354040283529160200191610401565b820191906000526020600020905b8154815290600101906020018083116103e457829003601f168201915b5050505050815260200160038201805461041a9061372c565b80601f01602080910402602001604051908101604052809291908181526020018280546104469061372c565b80156104935780601f1061046857610100808354040283529160200191610493565b820191906000526020600020905b81548152906001019060200180831161047657829003601f168201915b505050505081526020016004820180546104ac9061372c565b80601f01602080910402602001604051908101604052809291908181526020018280546104d89061372c565b80156105255780601f106104fa57610100808354040283529160200191610525565b820191906000526020600020905b81548152906001019060200180831161050857829003601f168201915b5050505050815260200160058201805461053e9061372c565b80601f016020809104026020016040519081016040528092919081815260200182805461056a9061372c565b80156105b75780601f1061058c576101008083540402835291602001916105b7565b820191906000526020600020905b81548152906001019060200180831161059a57829003601f168201915b505050505081526020016006820180546105d09061372c565b80601f01602080910402602001604051908101604052809291908181526020018280546105fc9061372c565b80156106495780601f1061061e57610100808354040283529160200191610649565b820191906000526020600020905b81548152906001019060200180831161062c57829003601f168201915b505050505081526020016007820180546106629061372c565b80601f016020809104026020016040519081016040528092919081815260200182805461068e9061372c565b80156106db5780601f106106b0576101008083540402835291602001916106db565b820191906000526020600020905b8154815290600101906020018083116106be57829003601f168201915b505050505081526020016008820180546106f49061372c565b80601f01602080910402602001604051908101604052809291908181526020018280546107209061372c565b801561076d5780601f106107425761010080835404028352916020019161076d565b820191906000526020600020905b81548152906001019060200180831161075057829003601f168201915b505050505081526020016009820160009054906101000a900460ff1660018111156107c1577f4e487b7100000000000000000000000000000000000000000000000000000000600052602160045260246000fd5b60018111156107f9577f4e487b7100000000000000000000000000000000000000000000000000000000600052602160045260246000fd5b815250509050806000015181602001518260400151836060015184608001518560a001518660c001518760e001518861010001518961012001519a509a509a509a509a509a509a509a509a509a50509193959799509193959799565b6060806000805b600180549050811015610937578460405160200161087a91906132a7565b60405160208183030381529060405280519060200120600080600184815481106108cd577f4e487b7100000000000000000000000000000000000000000000000000000000600052603260045260246000fd5b906000526020600020015481526020019081526020016000206000016040516020016108f991906132e2565b6040516020818303038152906040528051906020012014156109245781806109209061378f565b9250505b808061092f9061378f565b91505061085c565b5060008167ffffffffffffffff81111561097a577f4e487b7100000000000000000000000000000000000000000000000000000000600052604160045260246000fd5b6040519080825280602002602001820160405280156109a85781602001602082028036833780820191505090505b50905060008267ffffffffffffffff8111156109ed577f4e487b7100000000000000000000000000000000000000000000000000000000600052604160045260246000fd5b604051908082528060200260200182016040528015610a2657816020015b610a13612a6c565b815260200190600190039081610a0b5790505b5090506000805b6001805490508110156111e15787604051602001610a4b91906132a7565b6040516020818303038152906040528051906020012060008060018481548110610a9e577f4e487b7100000000000000000000000000000000000000000000000000000000600052603260045260246000fd5b90600052602060002001548152602001908152602001600020600001604051602001610aca91906132e2565b6040516020818303038152906040528051906020012014156111ce5760018181548110610b20577f4e487b7100000000000000000000000000000000000000000000000000000000600052603260045260246000fd5b9060005260206000200154848381518110610b64577f4e487b7100000000000000000000000000000000000000000000000000000000600052603260045260246000fd5b60200260200101818152505060008060018381548110610bad577f4e487b7100000000000000000000000000000000000000000000000000000000600052603260045260246000fd5b9060005260206000200154815260200190815260200160002060405180610140016040529081600082018054610be29061372c565b80601f0160208091040260200160405190810160405280929190818152602001828054610c0e9061372c565b8015610c5b5780601f10610c3057610100808354040283529160200191610c5b565b820191906000526020600020905b815481529060010190602001808311610c3e57829003601f168201915b50505050508152602001600182018054610c749061372c565b80601f0160208091040260200160405190810160405280929190818152602001828054610ca09061372c565b8015610ced5780601f10610cc257610100808354040283529160200191610ced565b820191906000526020600020905b815481529060010190602001808311610cd057829003601f168201915b50505050508152602001600282018054610d069061372c565b80601f0160208091040260200160405190810160405280929190818152602001828054610d329061372c565b8015610d7f5780601f10610d5457610100808354040283529160200191610d7f565b820191906000526020600020905b815481529060010190602001808311610d6257829003601f168201915b50505050508152602001600382018054610d989061372c565b80601f0160208091040260200160405190810160405280929190818152602001828054610dc49061372c565b8015610e115780601f10610de657610100808354040283529160200191610e11565b820191906000526020600020905b815481529060010190602001808311610df457829003601f168201915b50505050508152602001600482018054610e2a9061372c565b80601f0160208091040260200160405190810160405280929190818152602001828054610e569061372c565b8015610ea35780601f10610e7857610100808354040283529160200191610ea3565b820191906000526020600020905b815481529060010190602001808311610e8657829003601f168201915b50505050508152602001600582018054610ebc9061372c565b80601f0160208091040260200160405190810160405280929190818152602001828054610ee89061372c565b8015610f355780601f10610f0a57610100808354040283529160200191610f35565b820191906000526020600020905b815481529060010190602001808311610f1857829003601f168201915b50505050508152602001600682018054610f4e9061372c565b80601f0160208091040260200160405190810160405280929190818152602001828054610f7a9061372c565b8015610fc75780601f10610f9c57610100808354040283529160200191610fc7565b820191906000526020600020905b815481529060010190602001808311610faa57829003601f168201915b50505050508152602001600782018054610fe09061372c565b80601f016020809104026020016040519081016040528092919081815260200182805461100c9061372c565b80156110595780601f1061102e57610100808354040283529160200191611059565b820191906000526020600020905b81548152906001019060200180831161103c57829003601f168201915b505050505081526020016008820180546110729061372c565b80601f016020809104026020016040519081016040528092919081815260200182805461109e9061372c565b80156110eb5780601f106110c0576101008083540402835291602001916110eb565b820191906000526020600020905b8154815290600101906020018083116110ce57829003601f168201915b505050505081526020016009820160009054906101000a900460ff16600181111561113f577f4e487b7100000000000000000000000000000000000000000000000000000000600052602160045260246000fd5b6001811115611177577f4e487b7100000000000000000000000000000000000000000000000000000000600052602160045260246000fd5b815250508383815181106111b4577f4e487b7100000000000000000000000000000000000000000000000000000000600052603260045260246000fd5b602002602001018190525081806111ca9061378f565b9250505b80806111d99061378f565b915050610a2d565b5082829550955050505050915091565b6060600180548060200260200160405190810160405280929190818152602001828054801561123f57602002820191906000526020600020905b81548152602001906001019080831161122b575b5050505050905090565b600260009054906101000a900473ffffffffffffffffffffffffffffffffffffffff1673ffffffffffffffffffffffffffffffffffffffff163373ffffffffffffffffffffffffffffffffffffffff16146112d9576040517f08c379a00000000000000000000000000000000000000000000000000000000081526004016112d0906134f6565b60405180910390fd5b60006001811115611313577f4e487b7100000000000000000000000000000000000000000000000000000000600052602160045260246000fd5b60008083815260200190815260200160002060090160009054906101000a900460ff16600181111561136e577f4e487b7100000000000000000000000000000000000000000000000000000000600052602160045260246000fd5b146113ae576040517f08c379a00000000000000000000000000000000000000000000000000000000081526004016113a5906134d6565b60405180910390fd5b600160008083815260200190815260200160002060090160006101000a81548160ff0219169083600181111561140d577f4e487b7100000000000000000000000000000000000000000000000000000000600052602160045260246000fd5b02179055507f54fa947d029e4cc647538fc7716f04554bc51b04822213f960586415a77b991f81604051611441919061336d565b60405180910390a150565b600060205280600052604060002060009150905080600001805461146f9061372c565b80601f016020809104026020016040519081016040528092919081815260200182805461149b9061372c565b80156114e85780601f106114bd576101008083540402835291602001916114e8565b820191906000526020600020905b8154815290600101906020018083116114cb57829003601f168201915b5050505050908060010180546114fd9061372c565b80601f01602080910402602001604051908101604052809291908181526020018280546115299061372c565b80156115765780601f1061154b57610100808354040283529160200191611576565b820191906000526020600020905b81548152906001019060200180831161155957829003601f168201915b50505050509080600201805461158b9061372c565b80601f01602080910402602001604051908101604052809291908181526020018280546115b79061372c565b80156116045780601f106115d957610100808354040283529160200191611604565b820191906000526020600020905b8154815290600101906020018083116115e757829003601f168201915b5050505050908060030180546116199061372c565b80601f01602080910402602001604051908101604052809291908181526020018280546116459061372c565b80156116925780601f1061166757610100808354040283529160200191611692565b820191906000526020600020905b81548152906001019060200180831161167557829003601f168201915b5050505050908060040180546116a79061372c565b80601f01602080910402602001604051908101604052809291908181526020018280546116d39061372c565b80156117205780601f106116f557610100808354040283529160200191611720565b820191906000526020600020905b81548152906001019060200180831161170357829003601f168201915b5050505050908060050180546117359061372c565b80601f01602080910402602001604051908101604052809291908181526020018280546117619061372c565b80156117ae5780601f10611783576101008083540402835291602001916117ae565b820191906000526020600020905b81548152906001019060200180831161179157829003601f168201915b5050505050908060060180546117c39061372c565b80601f01602080910402602001604051908101604052809291908181526020018280546117ef9061372c565b801561183c5780601f106118115761010080835404028352916020019161183c565b820191906000526020600020905b81548152906001019060200180831161181f57829003601f168201915b5050505050908060070180546118519061372c565b80601f016020809104026020016040519081016040528092919081815260200182805461187d9061372c565b80156118ca5780601f1061189f576101008083540402835291602001916118ca565b820191906000526020600020905b8154815290600101906020018083116118ad57829003601f168201915b5050505050908060080180546118df9061372c565b80601f016020809104026020016040519081016040528092919081815260200182805461190b9061372c565b80156119585780601f1061192d57610100808354040283529160200191611958565b820191906000526020600020905b81548152906001019060200180831161193b57829003601f168201915b5050505050908060090160009054906101000a900460ff1690508a565b600260009054906101000a900473ffffffffffffffffffffffffffffffffffffffff1673ffffffffffffffffffffffffffffffffffffffff163373ffffffffffffffffffffffffffffffffffffffff1614611a05576040517f08c379a00000000000000000000000000000000000000000000000000000000081526004016119fc906134f6565b60405180910390fd5b60006001811115611a3f577f4e487b7100000000000000000000000000000000000000000000000000000000600052602160045260246000fd5b60008083815260200190815260200160002060090160009054906101000a900460ff166001811115611a9a577f4e487b7100000000000000000000000000000000000000000000000000000000600052602160045260246000fd5b14611ada576040517f08c379a0000000000000000000000000000000000000000000000000000000008152600401611ad190613516565b60405180910390fd5b60008082815260200190815260200160002060008082016000611afd9190612af7565b600182016000611b0d9190612af7565b600282016000611b1d9190612af7565b600382016000611b2d9190612af7565b600482016000611b3d9190612af7565b600582016000611b4d9190612af7565b600682016000611b5d9190612af7565b600782016000611b6d9190612af7565b600882016000611b7d9190612af7565b6009820160006101000a81549060ff0219169055505060005b600180549050811015611cf1578160018281548110611bde577f4e487b7100000000000000000000000000000000000000000000000000000000600052603260045260246000fd5b90600052602060002001541415611cde576001808080549050611c01919061364b565b81548110611c38577f4e487b7100000000000000000000000000000000000000000000000000000000600052603260045260246000fd5b906000526020600020015460018281548110611c7d577f4e487b7100000000000000000000000000000000000000000000000000000000600052603260045260246000fd5b90600052602060002001819055506001805480611cc3577f4e487b7100000000000000000000000000000000000000000000000000000000600052603160045260246000fd5b60019003818190600052602060002001600090559055611cf1565b8080611ce99061378f565b915050611b96565b507f464763c54ccb54138bb7ab422ba38bf28860d4597fa4aa7211dcfbeeaa39b87781604051611d21919061336d565b60405180910390a150565b6060806000805b600180549050811015611e415760006001811115611d7a577f4e487b7100000000000000000000000000000000000000000000000000000000600052602160045260246000fd5b60008060018481548110611db7577f4e487b7100000000000000000000000000000000000000000000000000000000600052603260045260246000fd5b9060005260206000200154815260200190815260200160002060090160009054906101000a900460ff166001811115611e19577f4e487b7100000000000000000000000000000000000000000000000000000000600052602160045260246000fd5b1415611e2e578180611e2a9061378f565b9250505b8080611e399061378f565b915050611d33565b5060008167ffffffffffffffff811115611e84577f4e487b7100000000000000000000000000000000000000000000000000000000600052604160045260246000fd5b604051908082528060200260200182016040528015611eb25781602001602082028036833780820191505090505b50905060008267ffffffffffffffff811115611ef7577f4e487b7100000000000000000000000000000000000000000000000000000000600052604160045260246000fd5b604051908082528060200260200182016040528015611f3057816020015b611f1d612a6c565b815260200190600190039081611f155790505b5090506000805b60018054905081101561271e5760006001811115611f7e577f4e487b7100000000000000000000000000000000000000000000000000000000600052602160045260246000fd5b60008060018481548110611fbb577f4e487b7100000000000000000000000000000000000000000000000000000000600052603260045260246000fd5b9060005260206000200154815260200190815260200160002060090160009054906101000a900460ff16600181111561201d577f4e487b7100000000000000000000000000000000000000000000000000000000600052602160045260246000fd5b141561270b576001818154811061205d577f4e487b7100000000000000000000000000000000000000000000000000000000600052603260045260246000fd5b90600052602060002001548483815181106120a1577f4e487b7100000000000000000000000000000000000000000000000000000000600052603260045260246000fd5b602002602001018181525050600080600183815481106120ea577f4e487b7100000000000000000000000000000000000000000000000000000000600052603260045260246000fd5b906000526020600020015481526020019081526020016000206040518061014001604052908160008201805461211f9061372c565b80601f016020809104026020016040519081016040528092919081815260200182805461214b9061372c565b80156121985780601f1061216d57610100808354040283529160200191612198565b820191906000526020600020905b81548152906001019060200180831161217b57829003601f168201915b505050505081526020016001820180546121b19061372c565b80601f01602080910402602001604051908101604052809291908181526020018280546121dd9061372c565b801561222a5780601f106121ff5761010080835404028352916020019161222a565b820191906000526020600020905b81548152906001019060200180831161220d57829003601f168201915b505050505081526020016002820180546122439061372c565b80601f016020809104026020016040519081016040528092919081815260200182805461226f9061372c565b80156122bc5780601f10612291576101008083540402835291602001916122bc565b820191906000526020600020905b81548152906001019060200180831161229f57829003601f168201915b505050505081526020016003820180546122d59061372c565b80601f01602080910402602001604051908101604052809291908181526020018280546123019061372c565b801561234e5780601f106123235761010080835404028352916020019161234e565b820191906000526020600020905b81548152906001019060200180831161233157829003601f168201915b505050505081526020016004820180546123679061372c565b80601f01602080910402602001604051908101604052809291908181526020018280546123939061372c565b80156123e05780601f106123b5576101008083540402835291602001916123e0565b820191906000526020600020905b8154815290600101906020018083116123c357829003601f168201915b505050505081526020016005820180546123f99061372c565b80601f01602080910402602001604051908101604052809291908181526020018280546124259061372c565b80156124725780601f1061244757610100808354040283529160200191612472565b820191906000526020600020905b81548152906001019060200180831161245557829003601f168201915b5050505050815260200160068201805461248b9061372c565b80601f01602080910402602001604051908101604052809291908181526020018280546124b79061372c565b80156125045780601f106124d957610100808354040283529160200191612504565b820191906000526020600020905b8154815290600101906020018083116124e757829003601f168201915b5050505050815260200160078201805461251d9061372c565b80601f01602080910402602001604051908101604052809291908181526020018280546125499061372c565b80156125965780601f1061256b57610100808354040283529160200191612596565b820191906000526020600020905b81548152906001019060200180831161257957829003601f168201915b505050505081526020016008820180546125af9061372c565b80601f01602080910402602001604051908101604052809291908181526020018280546125db9061372c565b80156126285780601f106125fd57610100808354040283529160200191612628565b820191906000526020600020905b81548152906001019060200180831161260b57829003601f168201915b505050505081526020016009820160009054906101000a900460ff16600181111561267c577f4e487b7100000000000000000000000000000000000000000000000000000000600052602160045260246000fd5b60018111156126b4577f4e487b7100000000000000000000000000000000000000000000000000000000600052602160045260246000fd5b815250508383815181106126f1577f4e487b7100000000000000000000000000000000000000000000000000000000600052603260045260246000fd5b602002602001018190525081806127079061378f565b9250505b80806127169061378f565b915050611f37565b50828295509550505050509091565b6000868a6040516020016127429291906132be565b6040516020818303038152906040528051906020012090506000806000838152602001908152602001600020600301805461277c9061372c565b9050146127be576040517f08c379a00000000000000000000000000000000000000000000000000000000081526004016127b5906134b6565b60405180910390fd5b6040518061014001604052808b81526020018a81526020018981526020018881526020018781526020018681526020018581526020018481526020018381526020016000600181111561283a577f4e487b7100000000000000000000000000000000000000000000000000000000600052602160045260246000fd5b815250600080838152602001908152602001600020600082015181600001908051906020019061286b929190612b37565b506020820151816001019080519060200190612888929190612b37565b5060408201518160020190805190602001906128a5929190612b37565b5060608201518160030190805190602001906128c2929190612b37565b5060808201518160040190805190602001906128df929190612b37565b5060a08201518160050190805190602001906128fc929190612b37565b5060c0820151816006019080519060200190612919929190612b37565b5060e0820151816007019080519060200190612936929190612b37565b50610100820151816008019080519060200190612954929190612b37565b506101208201518160090160006101000a81548160ff021916908360018111156129a7577f4e487b7100000000000000000000000000000000000000000000000000000000600052602160045260246000fd5b021790555090505060018190806001815401808255809150506001900390600052602060002001600090919091909150557fa485be53e13a717e4d5fe6e04daf92a1e85cb2a89e5e0d12f3e3efa934d094a681888c6000604051612a0e9493929190613388565b60405180910390a150505050505050505050565b60018181548110612a3257600080fd5b906000526020600020016000915090505481565b600260009054906101000a900473ffffffffffffffffffffffffffffffffffffffff1681565b60405180610140016040528060608152602001606081526020016060815260200160608152602001606081526020016060815260200160608152602001606081526020016060815260200160006001811115612af1577f4e487b7100000000000000000000000000000000000000000000000000000000600052602160045260246000fd5b81525090565b508054612b039061372c565b6000825580601f10612b155750612b34565b601f016020900490600052602060002090810190612b339190612bbd565b5b50565b828054612b439061372c565b90600052602060002090601f016020900481019282612b655760008555612bac565b82601f10612b7e57805160ff1916838001178555612bac565b82800160010185558215612bac579182015b82811115612bab578251825591602001919060010190612b90565b5b509050612bb99190612bbd565b5090565b5b80821115612bd6576000816000905550600101612bbe565b5090565b6000612bed612be88461355b565b613536565b905082815260208101848484011115612c0557600080fd5b612c108482856136ea565b509392505050565b600081359050612c27816139cf565b92915050565b600082601f830112612c3e57600080fd5b8135612c4e848260208601612bda565b91505092915050565b600081359050612c66816139e6565b92915050565b600060208284031215612c7e57600080fd5b6000612c8c84828501612c18565b91505092915050565b600060208284031215612ca757600080fd5b600082013567ffffffffffffffff811115612cc157600080fd5b612ccd84828501612c2d565b91505092915050565b60008060008060008060008060006101208a8c031215612cf557600080fd5b60008a013567ffffffffffffffff811115612d0f57600080fd5b612d1b8c828d01612c2d565b99505060208a013567ffffffffffffffff811115612d3857600080fd5b612d448c828d01612c2d565b98505060408a013567ffffffffffffffff811115612d6157600080fd5b612d6d8c828d01612c2d565b97505060608a013567ffffffffffffffff811115612d8a57600080fd5b612d968c828d01612c2d565b96505060808a013567ffffffffffffffff811115612db357600080fd5b612dbf8c828d01612c2d565b95505060a08a013567ffffffffffffffff811115612ddc57600080fd5b612de88c828d01612c2d565b94505060c08a013567ffffffffffffffff811115612e0557600080fd5b612e118c828d01612c2d565b93505060e08a013567ffffffffffffffff811115612e2e57600080fd5b612e3a8c828d01612c2d565b9250506101008a013567ffffffffffffffff811115612e5857600080fd5b612e648c828d01612c2d565b9150509295985092959850929598565b600060208284031215612e8657600080fd5b6000612e9484828501612c57565b91505092915050565b6000612ea98383612fab565b60208301905092915050565b6000612ec18383613195565b905092915050565b612ed28161367f565b82525050565b6000612ee3826135c1565b612eed81856135fc565b9350612ef88361358c565b8060005b83811015612f29578151612f108882612e9d565b9750612f1b836135e2565b925050600181019050612efc565b5085935050505092915050565b6000612f41826135cc565b612f4b818561360d565b935083602082028501612f5d8561359c565b8060005b85811015612f995784840389528151612f7a8582612eb5565b9450612f85836135ef565b925060208a01995050600181019050612f61565b50829750879550505050505092915050565b612fb481613691565b82525050565b612fc381613691565b82525050565b612fd2816136d8565b82525050565b612fe1816136d8565b82525050565b6000612ff2826135d7565b612ffc818561361e565b935061300c8185602086016136f9565b61301581613894565b840191505092915050565b600061302b826135d7565b613035818561362f565b93506130458185602086016136f9565b61304e81613894565b840191505092915050565b6000613064826135d7565b61306e8185613640565b935061307e8185602086016136f9565b80840191505092915050565b600081546130978161372c565b6130a18186613640565b945060018216600081146130bc57600181146130cd57613100565b60ff19831686528186019350613100565b6130d6856135ac565b60005b838110156130f8578154818901526001820191506020810190506130d9565b838801955050505b50505092915050565b600061311660148361362f565b9150613121826138a5565b602082019050919050565b600061313960268361362f565b9150613144826138ce565b604082019050919050565b600061315c60218361362f565b91506131678261391d565b604082019050919050565b600061317f602d8361362f565b915061318a8261396c565b604082019050919050565b60006101408301600083015184820360008601526131b38282612fe7565b915050602083015184820360208601526131cd8282612fe7565b915050604083015184820360408601526131e78282612fe7565b915050606083015184820360608601526132018282612fe7565b9150506080830151848203608086015261321b8282612fe7565b91505060a083015184820360a08601526132358282612fe7565b91505060c083015184820360c086015261324f8282612fe7565b91505060e083015184820360e08601526132698282612fe7565b9150506101008301518482036101008601526132858282612fe7565b91505061012083015161329c610120860182612fc9565b508091505092915050565b60006132b38284613059565b915081905092915050565b60006132ca8285613059565b91506132d68284613059565b91508190509392505050565b60006132ee828461308a565b915081905092915050565b600060208201905061330e6000830184612ec9565b92915050565b6000602082019050818103600083015261332e8184612ed8565b905092915050565b600060408201905081810360008301526133508185612ed8565b905081810360208301526133648184612f36565b90509392505050565b60006020820190506133826000830184612fba565b92915050565b600060808201905061339d6000830187612fba565b81810360208301526133af8186613020565b905081810360408301526133c38185613020565b90506133d26060830184612fd8565b95945050505050565b60006101408201905081810360008301526133f6818d613020565b9050818103602083015261340a818c613020565b9050818103604083015261341e818b613020565b90508181036060830152613432818a613020565b905081810360808301526134468189613020565b905081810360a083015261345a8188613020565b905081810360c083015261346e8187613020565b905081810360e08301526134828186613020565b90508181036101008301526134978185613020565b90506134a7610120830184612fd8565b9b9a5050505050505050505050565b600060208201905081810360008301526134cf81613109565b9050919050565b600060208201905081810360008301526134ef8161312c565b9050919050565b6000602082019050818103600083015261350f8161314f565b9050919050565b6000602082019050818103600083015261352f81613172565b9050919050565b6000613540613551565b905061354c828261375e565b919050565b6000604051905090565b600067ffffffffffffffff82111561357657613575613865565b5b61357f82613894565b9050602081019050919050565b6000819050602082019050919050565b6000819050602082019050919050565b60008190508160005260206000209050919050565b600081519050919050565b600081519050919050565b600081519050919050565b6000602082019050919050565b6000602082019050919050565b600082825260208201905092915050565b600082825260208201905092915050565b600082825260208201905092915050565b600082825260208201905092915050565b600081905092915050565b6000613656826136ce565b9150613661836136ce565b925082821015613674576136736137d8565b5b828203905092915050565b600061368a826136ae565b9050919050565b6000819050919050565b60008190506136a9826139bb565b919050565b600073ffffffffffffffffffffffffffffffffffffffff82169050919050565b6000819050919050565b60006136e38261369b565b9050919050565b82818337600083830152505050565b60005b838110156137175780820151818401526020810190506136fc565b83811115613726576000848401525b50505050565b6000600282049050600182168061374457607f821691505b6020821081141561375857613757613836565b5b50919050565b61376782613894565b810181811067ffffffffffffffff8211171561378657613785613865565b5b80604052505050565b600061379a826136ce565b91507fffffffffffffffffffffffffffffffffffffffffffffffffffffffffffffffff8214156137cd576137cc6137d8565b5b600182019050919050565b7f4e487b7100000000000000000000000000000000000000000000000000000000600052601160045260246000fd5b7f4e487b7100000000000000000000000000000000000000000000000000000000600052602160045260246000fd5b7f4e487b7100000000000000000000000000000000000000000000000000000000600052602260045260246000fd5b7f4e487b7100000000000000000000000000000000000000000000000000000000600052604160045260246000fd5b6000601f19601f8301169050919050565b7f53616e207068616d20646120746f6e2074616921000000000000000000000000600082015250565b7f53616e207068616d206b686f6e67206f207472616e6720746861692063686f2060008201527f6475796574210000000000000000000000000000000000000000000000000000602082015250565b7f4368692061646d696e206d6f6920636f20717579656e2074687563206869656e60008201527f2100000000000000000000000000000000000000000000000000000000000000602082015250565b7f43686920636f2074686520786f612073616e207068616d206f207472616e672060008201527f746861692050454e44494e472100000000000000000000000000000000000000602082015250565b600281106139cc576139cb613807565b5b50565b6139d881613691565b81146139e357600080fd5b50565b6139ef816136ce565b81146139fa57600080fd5b5056fea2646970667358221220de6766131b2a6d988cfc0ee51481c6c4528605b57f1992be9992c90df328967d64736f6c63430008020033",
  "immutableReferences": {},
  "source": "// SPDX-License-Identifier: UNLICENSED\r\npragma solidity >=0.4.22 <0.9.0;\r\n\r\ncontract XacThucSanPham {\r\n    enum TrangThai {\r\n        PENDING,\r\n        APPROVED\r\n    }\r\n    struct Product {\r\n        string nonghoSX;\r\n        string username;\r\n        string diaChi;\r\n        string maSanPham;\r\n        string loai;\r\n        string giong;\r\n        string tieuChuan;\r\n        string trongLuong;\r\n        string ngayThuHoach;\r\n        TrangThai trangThai; \r\n    }\r\n\r\n    mapping(bytes32 => Product) public products;\r\n    bytes32[] public productHashes;\r\n\r\n    address public admin;\r\n\r\n    event ProductAdded(\r\n        bytes32 productHash,\r\n        string maSanPham,\r\n        string nonghoSX,\r\n        TrangThai trangThai\r\n    );\r\n    event ProductApproved(bytes32 productHash);\r\n    event ProductDeleted(bytes32 productHash);\r\n\r\n    constructor() {\r\n        admin = msg.sender;\r\n    }\r\n\r\n    modifier onlyAdmin() {\r\n        require(msg.sender == admin, \"Chi admin moi co quyen thuc hien!\");\r\n        _;\r\n    }\r\n\r\n    function addProduct(\r\n        string memory nonghoSX,\r\n        string memory username,\r\n        string memory diaChi,\r\n        string memory maSanPham,\r\n        string memory loai,\r\n        string memory giong,\r\n        string memory tieuChuan,\r\n        string memory trongLuong,\r\n        string memory ngayThuHoach\r\n    ) public {\r\n        bytes32 productHash = keccak256(abi.encodePacked(maSanPham, nonghoSX));\r\n        require(\r\n            bytes(products[productHash].maSanPham).length == 0, \r\n            \"San pham da ton tai!\"\r\n        );\r\n        \r\n        products[productHash] = Product(\r\n            nonghoSX,\r\n            username,\r\n            diaChi,\r\n            maSanPham,\r\n            loai,\r\n            giong,\r\n            tieuChuan,\r\n            trongLuong,\r\n            ngayThuHoach,\r\n            TrangThai.PENDING\r\n        );\r\n\r\n        productHashes.push(productHash);\r\n        emit ProductAdded(productHash, maSanPham, nonghoSX, TrangThai.PENDING);\r\n    }\r\n\r\n    function approveProduct(bytes32 productHash) public onlyAdmin {\r\n        require(\r\n            products[productHash].trangThai == TrangThai.PENDING, \r\n            \"San pham khong o trang thai cho duyet!\"\r\n        );\r\n        products[productHash].trangThai = TrangThai.APPROVED;\r\n        emit ProductApproved(productHash);\r\n    }\r\n\r\n    function deleteProduct(bytes32 productHash) public onlyAdmin {\r\n        require(\r\n            products[productHash].trangThai == TrangThai.PENDING, \r\n            \"Chi co the xoa san pham o trang thai PENDING!\"\r\n        );\r\n        delete products[productHash];\r\n        \r\n        for (uint i = 0; i < productHashes.length; i++) {\r\n            if (productHashes[i] == productHash) {\r\n                productHashes[i] = productHashes[productHashes.length - 1];\r\n                productHashes.pop();\r\n                break;\r\n            }\r\n        }\r\n        emit ProductDeleted(productHash);\r\n    }\r\n\r\n    function getProduct(bytes32 productHash) public view returns (\r\n        string memory, string memory, string memory, string memory, string memory,\r\n        string memory, string memory, string memory, string memory, TrangThai\r\n    ) {\r\n        Product memory p = products[productHash];\r\n        return (\r\n            p.nonghoSX,\r\n            p.username,\r\n            p.diaChi,\r\n            p.maSanPham,\r\n            p.loai,\r\n            p.giong,\r\n            p.tieuChuan,\r\n            p.trongLuong,\r\n            p.ngayThuHoach,\r\n            p.trangThai\r\n        );\r\n    }\r\n\r\n    function getProductsByNongHoSX(string memory _nonghoSX) public view returns (\r\n        bytes32[] memory,\r\n        Product[] memory\r\n    ) {\r\n        uint count = 0;\r\n        for (uint i = 0; i < productHashes.length; i++) {\r\n            if (\r\n                keccak256(abi.encodePacked(products[productHashes[i]].nonghoSX)) \r\n                == keccak256(abi.encodePacked(_nonghoSX))\r\n            ) {\r\n                count++;\r\n            }\r\n        }\r\n\r\n        bytes32[] memory productHashList = new bytes32[](count);\r\n        Product[] memory productList = new Product[](count);\r\n        uint index = 0;\r\n\r\n        for (uint i = 0; i < productHashes.length; i++) {\r\n            if (\r\n                keccak256(abi.encodePacked(products[productHashes[i]].nonghoSX)) \r\n                == keccak256(abi.encodePacked(_nonghoSX))\r\n            ) {\r\n                productHashList[index] = productHashes[i];\r\n                productList[index] = products[productHashes[i]];\r\n                index++;\r\n            }\r\n        }\r\n        return (productHashList, productList);\r\n    }\r\n\r\n    function getProductsAwait() public view returns (\r\n        bytes32[] memory,\r\n        Product[] memory\r\n    ) {\r\n        uint count = 0;\r\n        for (uint i = 0; i < productHashes.length; i++) {\r\n            if (products[productHashes[i]].trangThai == TrangThai.PENDING) {\r\n                count++;\r\n            }\r\n        }\r\n\r\n        bytes32[] memory productHashList = new bytes32[](count);\r\n        Product[] memory productList = new Product[](count);\r\n        uint index = 0;\r\n\r\n        for (uint i = 0; i < productHashes.length; i++) {\r\n            if (products[productHashes[i]].trangThai == TrangThai.PENDING) {\r\n                productHashList[index] = productHashes[i];\r\n                productList[index] = products[productHashes[i]];\r\n                index++;\r\n            }\r\n        }\r\n        return (productHashList, productList);\r\n    }\r\n\r\n    function getProductHashes() public view returns (bytes32[] memory) {\r\n        return productHashes;\r\n    }\r\n}\r\n",
  "sourcePath": "D:\\chungthuc\\contracts\\chungthuc.sol",
  "compiler": {
    "name": "solc",
    "version": "0.8.2+commit.661d1103.Emscripten.clang"
  },
  "schemaVersion": "3.4.16",
  "updatedAt": "2025-04-16T13:27:56.614Z",
  "networkType": "ethereum",
  "devdoc": {
    "kind": "dev",
    "methods": {},
    "version": 1
  },
  "userdoc": {
    "kind": "user",
    "methods": {},
    "version": 1
  }
}